:020000040800F2
:100000000004002061010008811F0008811F000812
:10001000811F0008811F0008811F0008811F000840
:10002000811F0008811F0008811F0008F1160008C9
:10003000811F0008811F0008811F0008811F000820
:10004000811F0008811F0008811F0008811F000810
:10005000811F0008811F0008811F0008811F000800
:10006000811F0008811F0008811F0008D1080008B7
:10007000A1080008710800084108000811080008DC
:10008000E1070008B1070008811F0008811F000870
:10009000811F0008811F0008811F0008811F0008C0
:1000A000811F0008811F0008811F0008811F0008B0
:1000B00011070008811F0008811F0008210A00089D
:1000C000310B0008010A0008010B0008811F00081D
:1000D000811F0008811F0008811F0008811F000880
:1000E000811F0008811F0008811F0008811F000870
:1000F000811F0008811F0008811F0008811F000860
:10010000811F0008811F0008811F0008811F00084F
:10011000811F0008811F0008811F0008811F00083F
:10012000811F0008811F0008811F0008811F00082F
:10013000811F0008811F0008811F0008811F00081F
:10014000811F0008811F0008811F0008811F00080F
:10015000811F0008811F0008811F0008811F0008FF
:1001600072B6264880F3098825484EF60851CEF22B
:1001700000010860022080F31488BFF36F8F01F044
:100180004FFF00F0D5FD4FF055301E491E4A9142F9
:100190003CBF41F8040BFAE71C49184A91423CBFA6
:1001A00041F8040BFAE71A491A4A1B4B9A423EBF20
:1001B00051F8040B42F8040BF8E700201749184ADD
:1001C00091423CBF41F8040BFAE701F0E1FE01F077
:1001D0001FFF144C144DAC4203DA54F8041B88473B
:1001E000F9E701F03DF9114C114DAC4203DA54F836
:1001F000041B8847F9E701F003BF00000008002056
:10020000000000080000002000040020000400207E
:10021000D840000800080020000800200008002046
:100220003C0A00206001000860010008600100082D
:100230006001000800000000000000000000000055
:100240002DE9F04FC1F80CD0C3689D46BDE8F08F92
:10025000002383F311882846A047002001F0A0FD69
:1002600001F09EFB00DFFEE7000000000000000040
:100270002DE9F0410546B0F90400B5F902400B182C
:10028000A34282B00E46904617DBB5F906102B69E3
:10029000241AE4B2009322464346EF68B847361B5F
:1002A000E988B5F90000B6B2B5F902400131831909
:1002B00009B2A342A880E980E9DA56B12A69B5F902
:1002C000061000924346F2B2EC68A047AB881E4489
:1002D000AE8002B0BDE8F081000000000000000028
:1002E0000F2AF8B53FD9102A56D0172A3AD990F8D4
:1002F00028300C4617339342064650DAFB2A3BD986
:100300000126043AD5B2002106E00131731EC9B2BC
:100310006D08DBB2FEB11E46EB07F6D4002936D1DC
:10032000A388B4F9021001331BB28B42A3800CDB0B
:100330002788B4F9062088B23B441B1A1BB201324D
:10034000994212B2F8DDA380E280731E00216D088D
:10035000DBB2002EDFD129B12046BDE8F840FF22F4
:10036000FFF786BFF8BD02EB02120846BDE8F84071
:10037000D2B20121FFF77CBFF32A72D8E32A72D8E8
:10038000C32A72D8842A34BF06260526B9E7FF227D
:100390002046FFF76DFFC3E70B89CB80F8BD183A05
:1003A000416AD3B201EB4302528831F81350531B18
:1003B0009BB2002BD6D0013B9BB26F1C1F44336A0B
:1003C000585D10F0C00319D1A388B4F9021003449A
:1003D0001BB28B42A3800DDBB4F90620B4F800E019
:1003E00088B273441B1A1BB201328B4212B2F8DA84
:1003F000A380E2800135BD42E1D1F8BD402B0FD092
:10040000802B26D0C02BF5D100F00F02C0F30111D4
:1004100002EB0212D2B201312046FFF729FFE9E7D1
:10042000A28800F03F03013302EB8313B4F90210FA
:100430001BB28B42A380DDDBB4F800E0B4F90620E8
:1004400088B273441B1A1BB201328B4212B2F8DA23
:10045000CEE700F03F010131FF222046FFF708FF01
:10046000C8E702264DE703264BE7042649E700BF0D
:100470002DE9F04190F809E0067A86B00E449644E2
:100480000C9CADF80410ADF8081090F82A500D99A6
:100490000FFA8EFEADF80A20ADF80660ADF80CE05C
:1004A0000494059175B1C16A00240E880134B342E9
:1004B000A3EB060702D34E88B74207D3AC4201F143
:1004C0000C01F2D1002006B0BDE8F0814B688968CC
:1004D00033F81730CF183AD005460137CE5C1046B6
:1004E00007E001A92846FFF7FBFEBDF90A00BDF9A8
:1004F0000CE0704527DA95F8283017F8012B1733F0
:100500009342EEDA95F8293017339A42E9DCA2F1EA
:1005100018036A6ADBB202EB4301498832F81340E0
:100520000B1B9BB2002BE4D0013B9BB204F10108F2
:1005300098442B6A01A91A5D28460134FFF7D0FEC2
:10054000A045F6D1D1E7304606B0BDE8F081384687
:10055000B9E700BF0000000000000000000000003C
:100560002DE9F0430646DFF838909C6B83B0019389
:10057000CDF800901D468846134620460A46A769D6
:100580003146B84740B9238A0195CDF800904246DC
:100590003146A5692046A84703B0BDE8F08300BFF7
:1005A000210600080000000000000000000000001C
:1005B00006490B68834200D07047054B1B681BB18E
:1005C0005A681288672AF9D10B607047FC0900202D
:1005D00008080020000000000000000000000000EB
:1005E0000B0712D4026B30B4546815682168406B55
:1005F00021F00F012160127C0F2393406B60436850
:1006000030BC43F400734360704772B6014B024A3A
:100610009A62FEE7180900204C280008000000003C
:10062000F0B4049CB4F940508D4231DCB4F944502C
:100630008D422DDDB4F93E508618AE4228DDB4F966
:100640004270B84224DAA84205DA521B0244284616
:1006500002F0FF025619B742BCBF3A1AD2B2802B41
:1006600016D9431E1A4412B294F83C3090422084AA
:100670006184228584F830300CDC10D00146E38B95
:100680000132521A43F004030121A284E383E1847E
:10069000F0BC70472284114620850246EFE72046D1
:1006A000F0BC00F035BC00BF0000000000000000FE
:1006B00038B50446C28B41890589002342F0040203
:1006C000C2834384038480F83030C184858400F081
:1006D0009FFD204600F09CFD024B1A6802B138BD18
:1006E0001C6038BDFC090020000000000000000074
:1006F00030B4002503774277C583416130BC00F0F8
:10070000EFBD00BF0000000000000000000000007E
:100710002DE9F0414FF0804423699B0703D4BDE8E5
:10072000F04101F00DB900272761202585F31188DC
:100730001E4E626AB6F826E0F36990B2CEEB000175
:100740001A8989B2914206F11C081BD319687244B8
:100750004145F284DA68C1F80480F161DF6008BFC6
:10076000E76087F311881869904785F31188626AFA
:10077000B6F826E0F36990B2CEEB00011A8989B28F
:100780008A42E3D943450AD07244121A92B2012A2E
:1007900098BF0222024492B24FF080435A63002372
:1007A00083F31188BDE8F04101F0CAB818090020B0
:1007B000094B1968C1F3036159B1084810B5046BBE
:1007C0000A065A600CB1406BA047BDE8104001F02A
:1007D000B7B801F0B5B800BF00000240C009002062
:1007E000094B1968C1F3035159B1084810B5846A1F
:1007F0000A055A600CB1C06AA047BDE8104001F07C
:100800009FB801F09DB800BF00000240C009002061
:10081000094B1968C1F3034159B1084810B5046A7E
:100820000A045A600CB1406AA047BDE8104001F0CC
:1008300087B801F085B800BF00000240C009002061
:10084000094B1968C1F3033159B1084810B58469DF
:100850000A035A600CB1C069A047BDE8104001F01E
:100860006FB801F06DB800BF00000240C009002061
:10087000094B1968C1F3032159B1084810B504693F
:100880000A025A600CB14069A047BDE8104001F06F
:1008900057B801F055B800BF00000240C009002061
:1008A000094B1968C1F3031159B1084810B58468A0
:1008B0000A015A600CB1C068A047BDE8104001F0C1
:1008C0003FB801F03DB800BF00000240C009002061
:1008D00008B5074B196811F00F0105D0054A59609A
:1008E00013680BB150689847BDE8084001F028B87C
:1008F00000000240C00900200000000000000000CD
:1009000038B5446B3C4AA369656945EA034323F063
:100910007F4393424BD01BD8073A93423BD00132DE
:10092000934210D16268C36A22F400725B6862600D
:100930001A6842F001021A60626842F480526260F2
:100940005B68012B52D915F00A0F18BFA36938BD97
:100950002A4A934210D002329342F4D1C36A5B68B0
:100960005B68002B2CD0028C236842F0010243F418
:10097000A0630284236038BD6368026B23F40073B4
:1009800052686360136815F00A0F43F001031360A7
:1009900018BFA36938BD038C1A0A0BD003F00103FA
:1009A00043F0F00302F0060213432361CBE7038C0C
:1009B000C3F34703236115F00A0F18BFA36938BDBD
:1009C0006268202122F400726260226842F40072A0
:1009D000226081F31188C26922B1C361104653625B
:1009E00001F0D6F8002383F31188ACE7236823F4E1
:1009F00080632360A7E700BF0800030082000700B0
:100A000008B50348FFF77CFFBDE8084000F098BF39
:100A10008809002000000000000000000000000025
:100A200008B50348FFF76CFFBDE8084000F088BF39
:100A3000040A002000000000000000000000000088
:100A4000F8B5046BC36A6668276835680F2225F01D
:100A50000F053560247C5D6802FA04F47C602C6824
:100A60001E6824F00F042C601C7C01F48073A240EB
:100A70009BB27260002B35D183608A0544BF43F07E
:100A8000020383604F050BD5426B43F004035468A7
:100A900024F400745460146844F400741460836097
:100AA0000E0544BF43F0080383604D0444BF43F088
:100AB00020038360CC0419D543F01003090483603C
:100AC00019D4202383F31188C3693BB100216FF04F
:100AD0000102C16118465A6201F05AF8002383F3FB
:100AE0001188F8BD012213468260C6E70A0402D4C9
:100AF000002BE6D1F8BD43F040038360E1E700BF7F
:100B0000074808B5426B516989B201F45F43DB4382
:100B10005361FFF795FFBDE8084000F011BF00BF2B
:100B20008809002000000000000000000000000014
:100B3000074808B5426B516989B201F45F43DB4352
:100B40005361FFF77DFFBDE8084000F0F9BE00BF2C
:100B5000040A002000000000000000000000000067
:100B600011F00801F8B525D1C46A436B666827689F
:100B700035680F2225F00F053560257C2024AA401A
:100B80007A605A6822F480525A601A6822F48062AD
:100B90001A601A6842F400721A6084F31188C369FB
:100BA00023B1C1611846596200F0F2FF002383F3BC
:100BB0001188F8BD72B6024B024A9A62FEE700BF86
:100BC000180900204C280008000000000000000068
:100BD00010B543690446984700B110BD6369218A86
:100BE0002046BDE81040184700000000000000004B
:100BF000F8B50F466D2114460646FFF7E9FF2021A0
:100C0000C200304695B2FFF7E3FF337B204482B247
:100C1000DB1B13441BB293FBF5F005FB10302A4499
:100C2000101A00B2F8BD00BF000000000000000074
:100C30000268137873B3F0B5190602F10106066075
:100C400002D49BB21846F0BD03F0C0018029F8D051
:100C5000517801F0C004C02CF3D003F0200404F05C
:100C6000FF05A4B3043200250227202401F03F0130
:100C7000640841EA8515013706F1010E2342ADB241
:100C8000FFB2C0F800E018D0964505D09EF80010DD
:100C90007646EBE718467047AD0171782DB2013CFE
:100CA000182701F03F011C400D4304FA07F32B43C2
:100CB00001329BB202601846F0BD013F07EB4707C7
:100CC000AD017F002DB27178013C7246E9E73246F2
:100CD00006271F24E5E700BF000000000000000019
:100CE00010B40B7802784AB12A2A0CD09A4218D153
:100CF00042784B7801300131002AF5D1B3FA83F004
:100D0000400910BC704744783BB19C42224602D057
:100D10004B780131F8E70130E5E7B4FA84F0400997
:100D2000EFE70020EDE700BF00000000000000003A
:100D30001E4B19461A6842F001021A600B681B4AE2
:100D40009B07FBD511461368002003F0F9031360DD
:100D500050604B68154A13F00C0FFAD11146136816
:100D600043F4803313600B68104A9803FBD5114697
:100D7000536843F4E8135360136843F080731360BF
:100D80000B680A4A9B01FBD5114610B4084B094C6D
:100D9000122054601860536843F0020353604B689C
:100DA00003F00C03082BFAD110BC7047001002406E
:100DB0000020024000641D00000000000000000050
:100DC000F0B51349134A144B144801F1780501F1A9
:100DD0006404134F02F10C0601F1500E5063D5620A
:100DE00001F13C0003F10C05002114630124D660DD
:100DF0001661C3F82CE018635F63DD601D61147039
:100E00001C7051605161D16159605961D961F0BD67
:100E100058280008040A00208809002000540040D7
:100E2000005800400000000000000000000000002A
:100E3000F0B4164C427C2368012505FA02F681685D
:100E400023EA0603194023600FD01149002001EB6B
:100E5000C2045B06606041F8320004D10D4A536958
:100E600023F001035361F0BC7047827C0A4E5409A1
:100E700002F01F0702F1604202F561422034BD40DA
:100E800046F8245082F80013427CDEE7F80900207F
:100E9000C00900200010024000E100E00000000056
:100EA000C38B43F00403C383704700BF00000000FE
:100EB0008389B42B23D0B3F5877F19D05A2B10D058
:100EC000B0F92010B0F922304069DA1002EB42127A
:100ED00000EB8202505C03F00703184100F00100B0
:100EE0007047038CB0F92210C3F13F031BB2EBE74C
:100EF000418CB0F92030C1F1830109B2E4E7018CE3
:100F0000438CC1F18301C3F13F0309B21BB2DBE79C
:100F1000838930B4B42B42D0B3F5877F37D05A2BB6
:100F20001BD0B0F92030B0F9222090F83010F9B978
:100F3000D11001EB4111456903EB8103E95C02F03B
:100F40000702012404FA02F221EA0202EA54C38BE6
:100F500030BC43F00403C38370470389028C013B18
:100F600090F830109A1A12B2B0F922300029DFD06E
:100F7000D11001EB4111456903EB8103E95C02F0FB
:100F80000702012404FA02F20A43EA54DFE7438924
:100F9000428C013B9B1A1BB2B0F92020C5E70389A4
:100FA0004289048C418C013B013A1B1B521A1BB233
:100FB00012B2BAE7000000000000000000000000CC
:100FC00070B490F82A60D6B1C36A00221C8801323E
:100FD000A142A1EB040502D35888854206D3B24250
:100FE00003F10C03F2D1002070BC704759689A6875
:100FF00031F81530D018F7D070BCD05C704730464F
:10100000F2E700BF00000000000000000000000048
:1010100010B4C368017A1A7C91420DD0837A013AE8
:10102000934209D00133DBB202785C1A944208BFC4
:101030000131837208BF017243780BB910BC70474D
:1010400010BC01F065BA00BF000000000000000005
:101050002DE9F043B0F9203083B00446032B40D88B
:10106000DFE803F002918642827B90F834309A42A6
:1010700037D0022B40F39D80032B32D15E4B5F4F64
:101080009B69FF209B684FF020093B6000F0B8FC93
:1010900089F311885A4D4FF00008284600F0C8FD2A
:1010A00088F31188AF2302AE06F8043D89F3118856
:1010B000544B45F8083C01F08BF8022305F80C3C32
:1010C00088F3118801223146382001F081F901F0BE
:1010D0002FF9386800F094FC284600F071FD636B2E
:1010E000A37303B0BDE8F083436BDFF81081642B7A
:1010F00084BF64234363404BFF209B6920279B6888
:10110000C8F8003000F07CFC87F311883C4D0026C5
:10111000284600F08DFD86F31188636B3A4A1B0266
:10112000013BA2FB03238122C3F347138DF8042064
:101130008DF8053087F31188324B45F8083C01F0F3
:1011400047F8022205F80C2C86F31188382001A9F3
:1011500001F03EF901F0ECF8D8F8000000F050FC86
:10116000284600F02DFD636B237403B0BDE8F083C7
:10117000436B642B85BF64221346DBB24263C373A7
:1011800003B0BDE8F0838289838E9A42A9D05A2B9E
:1011900005D025DDB42B26D0B3F5877FA1D142BB86
:1011A000B4F90810628961812281A38103B0BDE88E
:1011B000F083114B114F9B69FF209B684FF0200972
:1011C0003B6000F01DFC89F311880D4D4FF00008C5
:1011D000284600F02DFD88F31188AE2302AE63E7A8
:1011E000002B7FF47EAF5A2ADAD0B2F5877FDCD1AC
:1011F000D6E7B42AD9D1D3E7180900200008002087
:10120000100A0020E42800081F85EB5100000000B0
:10121000C38B5B0700D470472DE9F04F2B4BDFF8F1
:10122000B4809B6985B09B680446FF20C8F80030F5
:10123000202700F0E5FB87F31188254D002628467E
:1012400000F0F6FC86F31188B02210238DF80D60B3
:101250008DF80C208DF80E3087F31188DFF878B008
:10126000A5F10C0A4FF00209CAF804B000F0B0FF73
:1012700005F80C9C86F31188032203A9382001F09D
:10128000A7F801F055F86169019187F31188CAF850
:1012900004B000F09DFF05F80C9C86F311884FF414
:1012A00086620199392001F093F801F041F8D8F8ED
:1012B000000000F0A5FB284600F082FCE38B23F041
:1012C0000403E38305B0BDE8F08F00BF18090020D8
:1012D000100A002000080020E42800080000000098
:1012E0002DE9F04F044685B04FF4866000F0F8FE1B
:1012F0006061002800F09D80637F0022A2616BB9CD
:101300000621202001F0CCF81121402001F0C8F87E
:101310001121802001F0C4F8FFF752FD474D20272E
:101320006F61142000F024FC454B2F619A69454BF6
:101330009268FF201A60019300F062FB87F3118826
:10134000414E0025304600F073FC85F31188E222FF
:101350000DF1100808F8042D87F31188DFF8F0B0BC
:10136000A6F10C0A4FF00209CAF804B000F030FFF1
:1013700006F80C9C85F3118801224146382001F0C3
:1013800027F800F0D5FF142000F0F2FB812178222D
:101390008DF80C108DF80D2087F31188CAF804B071
:1013A00000F016FF06F80C9C85F3118838204A4699
:1013B000414601F00DF800F0BBFF87F31188CAF831
:1013C00004B000F005FF06F80C9C85F311884FF47B
:1013D00086622946392000F0FBFF00F0A9FFAF220A
:1013E0008DF80C2087F31188CAF804B000F0F0FEE5
:1013F00006F80C9C85F3118801224146382000F044
:10140000E7FF00F095FF019B186800F0F9FA3046FD
:1014100000F0D6FB40208426032164222F23608124
:101420000120A5812681A173E273237405B0BDE874
:10143000F08F72B6024B054A9A62FEE7000C01403B
:101440001809002000080020100A0020F0280008D9
:10145000E428000800000000000000000000000078
:1014600080B5CCB000F0CCF900F0C2FC8C4B1A78FF
:10147000002A00F0CE808B488B4C8C4F8C4A8D4ECE
:101480008D4D8E4B38908E482994002442973D9282
:1014900033962E9524934394449445948DF81841A3
:1014A0003E943F9440948DF8044139943A943B948F
:1014B0008DF8F0403494359436948DF8DC402F94B8
:1014C000309431948DF8C8402A942B942C948DF844
:1014D000B4402594269415901FA801901AA8029054
:1014E00033A87849784A109029A8129015A80B9132
:1014F0001A9210A901AA149042A8744F0E91189242
:1015000005212EAA03903DA80BAB8DF83C1011923B
:1015100047A924AA04906E4E38A86E4D0D911F97CE
:101520001392059003AA07A827948DF8A040209451
:10153000219422948DF88C401B941C941D948DF85A
:101540007840169417948DF864400C94FF27069306
:1015500004234A920A918DF81C308DF82C3148945E
:1015600049948DF824408DF825408DF826408DF85B
:1015700027408DF81D700896479500F0C9FF4FF47D
:101580007A6000F0F5FA07A8FFF742FD4FF47A60A1
:1015900000F0EEFA07A8FFF73BFD4FF47A6000F089
:1015A000E7FA07A8FFF734FD4FF47A6000F0E0FA9D
:1015B0000A9B9DF82620DB6853F82230D96819B3BE
:1015C0009DF824100A938DF827208DF826408DF879
:1015D00025108DF824409DF81D3013B107A800F0A8
:1015E00097FF4FF47A6000F0C3FA07A8FFF710FDE9
:1015F0004FF47A6000F0BCFA07A800F089FF4FF4BE
:101600007A7000F0B5FAFAE75B68002BE3D09847F0
:10161000E1E7314A0121926919701AB900F0F0F836
:1016200000F0E6FBDFF8B880D8F8003073B1002591
:101630002E462A4F5A681B68BA42128808BF0136E4
:10164000672A08BF0135002BF4D102E01D461E4673
:10165000224F482000F044FD044600283FF40BAF21
:101660004822002101F0A4F867602B463246002191
:101670002046FFF73DF858B1D8F80030184A5BB162
:10168000184B1A68146020461C60FFF711F8F2E648
:10169000204600F035FBEEE6124B1460F3E700BF86
:1016A0000C080020442900086C290008242900089F
:1016B00034290008542900086029000880290008FE
:1016C000AC290008B82900089C29000894290008C2
:1016D000D4290008CC29000818090020EC290008AA
:1016E000080800200408002000000000000000009E
:1016F000EFF30983203383F30988002383F31188F0
:10170000704700BF00000000000000000000000063
:1017100030B4202383F311880B4D0C4A2B684C1EE8
:10172000013B0B4412684942044403EA0100131AC6
:10173000214099429ABF091829600020002383F3B1
:10174000118830BC704700BFF0080020100800204E
:1017500010B4202383F3118890F82030072B0ED883
:10176000DFE803F0270D0D2308040D08426A936893
:101770000133936090E80C001A60026853604FF0E8
:10178000FF34002281680D4B446280F820201B68E2
:101790009A688A42FBD25A68002103604260106056
:1017A000586081F3118810BC7047436A00221A60A8
:1017B000E5E7002383F3118810BC70471809002067
:1017C000FEE700BF00000000000000000000000075
:1017D000084B30B499691A6881F820001468012513
:1017E000636082F820501C60104630BC9A61FEF79E
:1017F00027BD00BF18090020000000000000000005
:101800003D4AF8B54FF0FF300024156910611461AE
:10181000D568D060D460D069384E40F08050D06137
:10182000D069374F40F00060D0613568234645F4F9
:10183000807535602146334A3348344D3C6001E0C1
:1018400052F8140C016045F833100133072B02F1F4
:1018500014024FF00004F3D12D4A4FF0FF33264D10
:101860005360A8692B492C4F2C4EDFF8C4E040F0A0
:101870007D00DFF8C0C0A861A2F57442CB602848A3
:101880004F600E60274ED36001F58051C2F804C04E
:1018900007F56377C2F800E04FF08832F3607260BA
:1018A0003260C36042600760CB604A600A60FFF745
:1018B00087FA4FF6FF7748F69F4EEB691A4E43F0D2
:1018C0000103EB617168194A4FF0804341F40061F4
:1018D000012080257160C3F828E04FF08051DF625D
:1018E0009C615C63DC605C605861186082F81C532A
:1018F000C2F880111160F8BD001002400070004075
:10190000F80900207028000808000240C0090020E3
:101910000000024000080140B8848888884B88880D
:101920000014014000100140002004E000E100E04C
:10193000388888FF38888888000000000000000090
:10194000202383F311880F4B5B6813F4006302D1EB
:1019500083F311887047EFF309834FF0807243F8E7
:10196000042CA3F1200282F30988074A11689269C6
:101970008968926891428CBF044A054A43F8082C52
:10198000704700BF00ED00E0180900206102000868
:1019900064020008000000000000000000000000D9
:1019A0000E4A30B410689469036801215A6000251A
:1019B00080F82010A1681360906184F8205000E046
:1019C0001B689A688A42FBD85A6821462360626085
:1019D00014605C6030BCFEF733BC00BF1809002007
:1019E000044B1A689B6992689B689A4200D87047BA
:1019F000FFF7D6BF1809002000000000000000001B
:101A000010B5202383F31188084B9B69DC6B996820
:101A10008C4201D0814200D29860D863FFF7E0FF8A
:101A2000002383F31188204610BD00BF1809002051
:101A30004FF6FF73F0B5994287B051D0494C4FF043
:101A4000804E254655F81C2FDEF824300129064625
:101A5000454FA06998BF0221AA4205909BB2049706
:101A600069D0E08C1B1A194489B29942138932DB80
:101A700099423CD3994205D91268C91A138989B28F
:101A80008B42F9D34FF6FF70536801AF0293019276
:101A90001F605760ADF80C101389591A1181A0848A
:101AA0003046FFF795FE049B8BB1E3692D4ABB429C
:101AB00022D0029A019B00211360019BAB425A6025
:101AC000049104D01989BDF80C200A441A81A36935
:101AD000586A07B0F0BD1268C91A89B21389C9E7FC
:101AE000FFF776FE1F4CA369586A07B0F0BD0844A3
:101AF00080B2CEF83400BDE701990023A942D1613C
:101B00004D6004932AD04FF08040456AD28C0E89F4
:101B1000BDF80C30ADB2AA1A33449BB292B29342D4
:101B20000B81D4D99A1A93B2012B98BF02232B446C
:101B30009BB24363CBE75A18E38401AF92B2002013
:101B4000022301950295ADF80C10E7612762CEF8EB
:101B50003420CEF81000CEF80C30A1E74FF08042D0
:101B6000D360B4E7180900205117000800000000F6
:101B700008B50146202383F311880820FFF758FF9A
:101B8000002383F3118808BD00000000000000005E
:101B900010B4044600228168074B80F820201B689F
:101BA0009A688A42FBD25A682046236062601460B9
:101BB0005C6010BC704700BF1809002000000000E6
:101BC000174B70B59D69202383F311880468C3689F
:101BD0008442AB631DD0E96B4BB11A68934203D0CA
:101BE0009268914238BF1146DB68002BF5D103465D
:101BF0002268A66B2046A9601A6053609C60DE6074
:101C0000A363FFF7C5FFFFF7EBFE002383F3118803
:101C100070BD0023A360002383F3118870BD00BF53
:101C20001809002000000000000000000000000073
:101C3000304B826870B59C69002A56D0A1689368C1
:101C40000546994207D992F820309160062B33D08F
:101C5000072B1DD09BB12B4603E09968A2689142E7
:101C600002D31B689D42F8D15A68236062601460F9
:101C70005C6065620620BDE87040FFF7A9BD92E890
:101C80000A001960104612685360FFF781FFE2E70F
:101C900092E80900186010684360566A334602E013
:101CA0009868814202D81B689E42F9D15968136036
:101CB00051600A605A60CEE792E809001860106827
:101CC0004360566A334602E09868814202D81B6836
:101CD0009E42F9D15968136051600A605A60B26837
:101CE000A16893688B42AED3B5E7A36B8460C360F1
:101CF000A06370BD18090020000000000000000073
:101D0000F8B550F8043C50F8087C0733DB0840F87D
:101D1000043C07F1080506461037A0F1080420230B
:101D200083F311883846FFF783FF002383F311887C
:101D30002B46AB4204D0A34202D31B68AB42FAD17C
:101D40001A681AB1944201D31346F2E746F8082CF8
:101D50001C6056F8041C56F8085C4A1C04EBC200D0
:101D6000A8420AD059684A1C03EBC20294420ED022
:101D70003846BDE8F840FFF723BF40680144013111
:101D800046F8041C54F8322046F8082CEAE756F8C6
:101D9000042C0A4401325A6056F8082C1A60E7E70E
:101DA00038B52022034682F31188104A9469A06A4C
:101DB00004F128058542636206D00368A362FFF739
:101DC000E7FEA06AA842F8D194F8223043B994F80B
:101DD00021309B0704D1226963691A61226953612A
:101DE0000F20BDE83840FFF7F3BC00BF1809002002
:101DF0004FF6FF70F0B54FF6FF054F4A4F4E504C6F
:101E0000504F514B16605149514E2760514F524C23
:101E10000E60988403F11C0103F12C0003F15406B9
:101E20005F6403F1580E02F110075E65D961196213
:101E3000186100215861986180260120176157615F
:101E40009160D16091615E639E661B605B60DB6345
:101E50001B64C3F858E0C3F85CE09960D98483F848
:101E60004D1059661966996483F84E0083F84C004A
:101E7000E6683A4A35402A43394DE260EA68394E0D
:101E800042F08072EA6032681027024320253260F7
:101E9000E77784F8225081F3118862B685F31188C0
:101EA000314A324D5C69C2F89800C2F8CC0082F821
:101EB000B2002F4E02F16C00DFF8B8E0C2F89C00CF
:101EC000022702F19000C2F88C509D6982F8B07030
:101ED000C2F8A44082F8B110C2F8C410C2F8A860D9
:101EE0001167C2F8C810C2F8A030C2F8AC20C2F81E
:101EF0006CE02061C2F8B410AE6802F1BC0402F1DB
:101F0000B8075861C2F8B870C2F8BC40C2F8C04007
:101F10007EB182F8B0101B6899680029FBD1C2F825
:101F200090305C68C2F894402060586081F311885A
:101F3000F0BD85F82060FEE7F808002011170008C2
:101F4000F0080020400A0020180900201008002096
:101F5000005000204C2A000800ED00E00003FA05C4
:101F6000F0ED00E0001000E0180800205102000829
:101F7000642A0008C11700080000000000000000EB
:101F8000FEE700BF000000000000000000000000AD
:101F9000F0B5134F134D144C144B154907F1700E47
:101FA00000269C4211D91A46043951F8040F42F810
:101FB000040B9442F9D8DA43144424F003040434A3
:101FC00023449D4203D943F8046B9D42FBD87745D7
:101FD00005D039697B69BC69FD691037E1E7F0BD5F
:101FE0006C2A00083C0A00203C0A00203C0A002021
:101FF000D8400008000000000000000000000000C1
:10200000FEE700BF0000000000000000000000002C
:10201000704700BF0000000000000000000000004A
:10202000704700BF0000000000000000000000003A
:10203000F0B5244D447C01222B6802FA04F61E42BE
:102040003DD1214A214F02EBC40642F834105A0612
:10205000776004D11E4C626942F0010262614268FD
:10206000076816680F2426F00F06166090F810E037
:10207000866804FA0EF47C6033424FF0000414606A
:1020800016D1A9B1817C01244A09920001F1604670
:1020900002F1604201F01F0102F5614204FA01F110
:1020A000502706F5614686F80073C2F8801111606A
:1020B000417C01228A4013432B600020F0BD104672
:1020C000F0BD00BFF8090020C0090020040A00206C
:1020D00000100240000000000000000000000000AE
:1020E0002DE9F041C61D0446F608202383F311882C
:1020F0003448FFF79DFD002383F3118832480368BD
:1021000003F10F0222F0070EAEF10807D91B03F10D
:10211000080583B1D3F804C00CF10102D200A2F18A
:1021200008081A44414497424FEAE10101D2B14202
:1021300014D21846E3E7254D05F11000FFF740FDE6
:102140002B68002B3AD0701CC0000821984700284B
:1021500034D0056044600830BDE8F081BB4216D33E
:10216000B44527D001361968A8EBC60243F83610EB
:102170001F46D21003EBC6035A600360134887E87A
:1021800011001030FFF71CFD2846BDE8F0817A1BD6
:10219000D210B1425A600BD9F2430136114407EB19
:1021A000C60251601968754647F836101A60E5E7AF
:1021B0007546E3E71A681F460260DFE70020BDE8C6
:1021C000F08100BF0809002000090020F808002065
:1021D000F8B54E4C9A2226788A23012EA2626362B9
:1021E000656B47D02B464FF6C076216BE26A4F688D
:1021F000526805F1100191604FF40040B96000226F
:102200004FF4106128602A606960596864680E4064
:102210006068277A5E6059683D4E41F02401B04203
:1022200059601EDD3B49884207DC022F63D0032F33
:1022300054D048F6FF720B211962DA6121781A68CE
:10224000022992B244D003293FD0012905D01A6057
:102250002B6843F001032B60F8BD22F00A0292B212
:10226000F5E72D49420091FBF2F22521C2F30B0262
:102270001962E2E7294F00223B69294943F4001320
:102280003B61E06A3A61FFF7D3FE2649206BFFF716
:10229000CFFEF869616AA36A234A40F40010F8612E
:1022A000502082F81F0343F440534FF0004741F49D
:1022B00040516162C2F88071A3621760636B82F85B
:1022C0002003C2F8846156608DE742F00A02BEE73F
:1022D00022F0080292B242F00202B8E700EB80025C
:1022E0000D4902EB820291FBF2F26FEA82426FEA41
:1022F000924292B29FE7084900EB400291FBF2F252
:102300006FEA42426FEA524292B294E7040A002016
:10231000A0860100801A060000512502001002402C
:10232000610B0008E105000800E100E0000000008A
:10233000F8B5202383F311881F4C2378012B33D069
:10234000206B636B416800254FF400421A601D60EA
:102350005D605D610B68E26A23F00F030B60017C36
:1023600006680F23576803FA01F17160396821F09C
:102370000F013960117C12688B405360FEF758FDE5
:10238000E06AFEF755FD0D4B0D4A4FF0004001216C
:10239000C3F8800083F81F53C3F8841083F82053D8
:1023A000D36923F40013D3610023012263602270F8
:1023B00083F31188F8BD00BF040A002000E100E0AB
:1023C00000100240000000000000000000000000BB
:1023D0002DE9F8439146202484F311882D4E4000C6
:1023E0000325002330843570B360706B83F311884C
:1023F000326BD6F82CE0D2F804C0B26ADEF804E002
:10240000CCF80020726ACCF80C104FF08048CCF861
:102410000490CEF80020CEF80C30CEF80430D8F876
:1024200024201F46454692B201E087F3118884F3C9
:10243000118883699B0702D4036899050DD56B6ADF
:102440009B1A9BB2632BF0D9052333704FF0FF30FA
:10245000002383F31188BDE8F88343680E4A43F4F0
:102460000073436003680B4C926943F4807304F17A
:102470001C050360142155620320F261FFF7D8FAAE
:10248000431CE1D002232370002383F31188BDE8AD
:10249000F88300BF040A0020180900200000000093
:1024A0000329F0B42BD0042904BF164B5861002334
:1024B0001A461D461C46144F0826795C07064FEA4B
:1024C00004144FEA02124FEA05154FEA031354BFF2
:1024D00044F00F040A43070454BF45F00F050B43B3
:1024E000013E4FEA4000E9D10649486805402B43C8
:1024F0004B600B681C4022430A60F0BC7047014BE4
:102500001861D4E7000C0140203F000800000000E3
:102510002DE9F04F9F4B02781E680146B6F90A80FC
:102520009D4B98FBF2F28FB002901C68B6F9080040
:10253000079212B2059008924D68002C00F0268197
:102540002746A14603E03F68002F00F008817C6821
:1025500028462168FEF7C4FB0028F4D0A346F38B7D
:10256000BDF81420002743F00403B284F3833046FF
:10257000A6F826807784378486F83070FEF748FE08
:1025800002990A7A087813B281188A421C461346C7
:1025900080F2DC800599A046013101EBD171C1F3D5
:1025A0004F0109910799013104910DE0BBB20193EC
:1025B00008F10108019F0FFA88F8111801378845C2
:1025C0003FB2434680F2C2800299C9680C7C9C42AB
:1025D000ECDD029A049D907A0022984214BF1046C6
:1025E00096461446BBB2019305FB03F3C968694ED6
:1025F00051F828C037689BB21EB2DCF80050F98B46
:102600007E84A7F84060079EDDF814C0BDF82090D6
:102610001E4408BF012041F0040118BF4FF0010E15
:10262000A7F82690A7F84460F983A7F824C0C7F854
:1026300038B0A7F842C087F83CE03A84FA8787F8B8
:10264000300087F83D009BF8092004990DF1380A05
:102650008A1A02EBD27203EB620213B24AF80C5DE3
:1026600003950693A1462B464FF6FF76554600E0AC
:102670000B9B1B7809F101091FFA89F983B12846E0
:10268000FEF7D6FA20F080039BB2202B06D00A2852
:1026900004D00D2802D0092818BF4C46B145E7D117
:1026A0004FF6FF79039B00250DF1380A4AF8043DE7
:1026B000AC4218BFA1462E4608E001465846FEF738
:1026C00087FA01362844B14505B210D00D9B1B781E
:1026D0006BB15046FEF7ACFA0928EED12A4600212C
:1026E0005846FEF785FA0136B1450546EED1099BFD
:1026F00005EBD575A3EB65059BF80C60ADB2039BAC
:10270000AE1B0C9336B22DB2DDF8189084B10CA834
:10271000FEF78EFA092812D002463B46304649465B
:10272000FDF71EFF304406B2013CA4B2002CEED1EE
:102730003846FEF76DFD029A1078127A38E7324675
:1027400029465846FEF754FA0646EDE79BF80F3047
:1027500003F0C003C02B12D00FB0BDE8F08F4C4681
:1027600001E0246844B1676828467968FEF7B8FA42
:102770000028F6D0BB46F2E6DFF824B0EFE60023EF
:10278000CBF818305846FFF7BBFAE5E7034C1C605E
:10279000D6E600BFFC090020000A0020FC3E00082D
:1027A0009C40000800000000000000000000000045
:1027B00070B4840746D0541E002A41D0CDB20346DF
:1027C00002E0621EE4B3144603F8015B9A07F8D1F5
:1027D000032C2ED9CDB245EA05250F2C45EA054537
:1027E00019D9264603F11002103E0F2E42F8105C54
:1027F00042F80C5C42F8085C42F8045C02F11002FA
:10280000F2D8A4F1100222F00F0204F00F041032EB
:10281000032C13440DD91E462246043A032A46F8D7
:10282000045BFAD8221F22F003020432134404F09E
:1028300003042CB1C9B21C4403F8011BA342FBD111
:0C28400070BC704714460346C2E700BF9E
:10284C00444D41206661696C757265000000024060
:10285C0008000240010000000000000000000B0016
:10286C00000002401C0002400200000000000000BA
:10287C0004010C0000000240300002400400000083
:10288C000000000008020D0000000240440002405D
:10289C0008000000000000000C030E0000000240C5
:1028AC0058000240100000000000000010040F004F
:1028BC00000002406C0002402000000000000000FC
:1028CC00140510000000024080000240400000008F
:1028DC00000000001806110001000000801A06001C
:1028EC0002000000474449535020554331363031E3
:1028FC00733A204661696C656420746F20616C6C5E
:10290C006F636174652070726976617465206D65A2
:10291C006D6F727900000000D09FD183D0BDD0BA0A
:10292C00D182203031000000D09FD183D0BDD0BAED
:10293C00D182203032000000D09FD183D0BDD0BADC
:10294C00D182203033000000D0A0D0B5D0B6D0B8A2
:10295C00D0BC0000D0A2D0B5D181D1820000000043
:10296C00D09FD183D0BDD0BAD1822030315F3033EB
:10297C0000000000D09FD183D0BDD0BAD1822030CE
:10298C00315F303400000000456E676C697368007D
:10299C00D0A0D183D181D181D0BAD0B8D0B9000028
:1029AC00D0AFD0B7D18BD0BA00000000D09DD0B042
:1029BC00D181D182D180D0BED0B9D0BAD0B80000EC
:1029CC006D656E750000000041726368616E67652D
:1029DC006C736B20526567756C617220313200002C
:1029EC006700000048000000F1060008B10600086E
:1029FC00B1050008E1120008000000000000000012
:102A0C0000000000000000000000000000000000BA
:102A1C000000000000000000110F00080000000082
:102A2C00A10E000800000000B10E0008000000001C
:102A3C0051100008000000000000000011120008F6
:102A4C006D61696E00160020040244080C10141805
:102A5C001C2021220000000069646C65000000004D
:102A6C00D84000083C0A00203C0A00203C0A002008
:102A7C00D84000080000000000000000000000002A
:102A8C00D84000080000000000000000000000001A
:102A9C00D84000080000000000000000000000000A
:102AAC00D8400008000000000000000000000000FA
:102ABC00D8400008000000000000000000000000EA
:102ACC00D8400008000000000000000000000000DA
:102ADC00D8400008000000000000000000000000CA
:102AEC00060010023C1B1B27011F071004383F6710
:102AFC0070060C2843081008003CA05A370719CC64
:102B0C0032A05A370760A64CA61008461F5F5633F2
:102B1C0008224E204E20564943205320532208337E
:102B2C004370100C38554021250B5452030A210CCC
:102B3C00842652030A00825455405706641E6003D3
:102B4C003F005829543552005829540B2C00641E50
:102B5C0010081A38050E1E5F40040E22CC53224476
:102B6C00492F224E0057074C0E04210E0C4C446783
:102B7C00072D10023C05871003189F6C0F1B1B2799
:102B8C006C9F10035B657E259E262528012F100463
:102B9C003809774C0651075F340810051A381B9911
:102BAC006B10021C04200E10055E2E330510021C47
:102BBC0010083018970C280B2C24085C5F1D085F3C
:102BCC00250B5F2984228210073806511E4C2C00DD
:102BDC00254CA54CA54CA54C2C00254C06511E1083
:102BEC0004385A6B9E100800380C3308206D2202F2
:102BFC000A5143220B7E0E01217037100838931EA8
:102C0C00224E1A6D5F613F209C3522931E100826C0
:102C1C0038345F01613E290F5A4C630F07394C055C
:102C2C00480D5107286B1008383706191B33432001
:102C3C009C2922931E100838563306224E202D282C
:102C4C00C21E222D1A9C2922881E100838372D5F8F
:102C5C00350D28082D5F6F085F350C28082D5F4A4D
:102C6C000810083856492F7C29228435220B338AC8
:102C7C002284357C292256492F10083893367C53F0
:102C8C0022527144336B20532201332F10023B002C
:102C9C001F0710023B0F058710050062785F5A086A
:102CAC00285A08205A0810065B3C8F223C8F1005CE
:102CBC00625A08207828785F5A0810065E01493F4E
:102CCC00979760B43F243C100B1855371E302C4698
:102CDC00251ACC4FCBC5C85C044DC5C85C046753E2
:102CEC001ACC4F331E002B276C07513F1008388825
:102CFC00366A2A37752B10088D9A2922C53560C281
:102D0C008A22C5351981331E100838568F226C0F54
:102D1C001B276C568F10088D9A53758C941008389D
:102D2C00376E0F8F100838376E100838880F236CE9
:102D3C00C5455A2367714E71884810083C2A8C3758
:102D4C00198C2B10023C9E2B100630189E26254CFD
:102D5C0005492F10085EC65A0554C84A0854CC655C
:102D6C000A22C00160CC650A22C84A0822C65A054C
:102D7C0010063C9E26C20510093C05261D60590113
:102D8C0021650F60590B210B0EE52B570657574643
:102D9C00CC0B0E0E0B3946CC650E013930C805052F
:102DAC004110083C08714808A042772367807421C1
:102DBC008023E53423C534100838931E6A2A909377
:102DCC001E10088D9A4B75264B60C243226B10085F
:102DDC0038931E6A2A00714E000D00532244494359
:102DEC007010088D9A4B759430CC500F0722C66129
:102DFC0007100838083A027C245220444943206DBD
:102E0C0022023A081008380D3A0D709E10083C8CBE
:102E1C008C9088361008380C0B1A5D016057022113
:102E2C007922650800052D4C090E000C0C246F341A
:102E3C00065F0C59015F0642100A380D0A210D0E6F
:102E4C0021090E305D006F5C000D0930045C5A796D
:102E5C006F05540E080C0B0A0D5A01304F0E0F065D
:102E6C0005590B6005480201480660010F0C210B47
:102E7C000F0210083882350C4C0C0D502C22250EEC
:102E8C005C5F073F5F250E5C240C0D502C60823577
:102E9C000C10083C2A90444943701B100838372DFD
:102EAC005F083F244F3F24503F24293F5F0D3F28AC
:102EBC00372D1003211F5C286B9E2B5C1008388269
:102ECC00280C844C250B201D7E085C200B2C5F35B8
:102EDC000C10035B4A6B9E2B280448100521070835
:102EEC00285A4270085701240821060110065B1C61
:102EFC008F1002380D7E0A7E060710062E91775F22
:102F0C002524347F10063C1B481E8B22C825662FB7
:102F1C00100672246C0F276C56491006263C273E6F
:102F2C0093684586564910062E5D0F2F766C08491E
:102F3C000D1003380736280E7E59206B1B100672B5
:102F4C0068458693206560B42F10063C1B481E8B89
:102F5C009D10023C0520049E1002003C20180E9E81
:102F6C002656201E10063C28C801020154CC293DCF
:102F7C00324B52660370734E10085E3C590B0E1E9A
:102F8C0030CC032D5319C823CD74A810062E492F0D
:102F9C008B9D10062E98242C25453E9B1A981006C6
:102FAC002E492F8B22C825661E00321B1006726814
:102FBC004586931F1B10062E491E22C8080D003291
:102FCC001B10062E094859241E200949960A4952FD
:102FDC00100321181B200B8A206B1B1006898525DA
:102FEC00249810079522035C4F0C4C4F0C035C2467
:102FFC006F0D0B2882100A2E0C09004A07001D01C8
:10300C003055010A59000B0A5465345A085C6009A2
:10301C0059000B0F0D226F08004A0710062E0A0EDE
:10302C00010A8454350D2D5F05425F350D2D4C4F33
:10303C000E508410079522032D4F0B24090B022DE3
:10304C0024470C0928092C24022F5F044210062E59
:10305C00335C5F068A0124093F5F0B4224C05C107D
:10306C000400189F6C6B20631B276C9F1002219E21
:10307C002B1B1B10045B657E251B273D206B20251D
:10308C0028012F100638050E580208328F4C080103
:10309C00050C3610060010023C7E019E1000023C0E
:1030AC007E0F7E0D0628180D1B100518615C5F84C1
:1030BC00240D0F435F0B01295F52355F060D8A9774
:1030CC00270C5F4A421006380948422459673E597A
:1030DC00673E0948421008006278633D6083228392
:1030EC004C83100638094842660967322D043E09A4
:1030FC00484210045E4F3F0070475F4F3F1005621F
:10310C0041990F277E28C0051003620B42285110ED
:10311C0003620E42280E8A10023C058710023B10F7
:10312C00063805F9054C185D0F2F766C08490D1003
:10313C000D380B08260B00641ED442CC5829D4340D
:10314C0007E8582900CC3406F6641E21C8344A60BE
:10315C00C65D6791C5C534100862834C78632C60DA
:10316C0078632C54831004387D00040B28035728F3
:10317C0091091004387D0B3F280B3F22B40D10042D
:10318C0038250E2802050E28250E280D4820040B84
:10319C002804342891100638C638660A97974C01D3
:1031AC00493F100838931E6A2A37752B1008383798
:1031BC0001191B3343198181331E10088D9A292262
:1031CC00C53560C28A22C5351981331E10068D059E
:1031DC00329E100900380551364C3D21634CA54CEC
:1031EC00A54CA53271483746CC2B100838376E0FDA
:1031FC008F100A38350CE829841A0342F6094E6000
:10320C00575757064C0C490C4C57575706600342FE
:10321C00F6094E303552F62984100838083342200E
:10322C006D5F613F20299722083A08100838C53491
:10323C0060C634234D8023678074800074777408D3
:10324C00D410081A47052403460322C56160C661E1
:10325C00234D613430CC61087461080074777408B4
:10326C00D410085EC65A0554C84A0854CC650A22C4
:10327C00C00160CC650A22C84A0822C65A0510084B
:10328C002138934C025C414C55EC4C0B0AA0011EAE
:10329C00A01D02A0090DD410093C05261D60590182
:1032AC0021650F60590B210B0EE52B57065757461E
:1032BC00CC0B0E0E0B3946CC650E013930C805050A
:1032CC004110083C2A8C37198C2B100838931E6A35
:1032DC002A90931E10083C37758C8C2B10088D9AF5
:1032EC004B75264B60C243226B100838568F226CEC
:1032FC000F1B276C568F1008380D3A0D709E100856
:10330C0038090F05210C0D4C0B2D072D4C350E7962
:10331C005F478422055C5F65085F043F100A3844F0
:10332C003A435440410D004B30A60D415440410DE1
:10333C00004B54443A40246B10083882350C4C0C2A
:10334C000D502C22250E5C5F073F5F250E5C240C74
:10335C000D502C6082350C10093C8C8C8C376B100A
:10336C00083C8C00714E71443A1B100A5EC68E8E5E
:10337C008E8E8E31F237100A5EA67A7A7A7A7A219C
:10338C00C5B4376B10095E07481B697594100A5E4B
:10339C00E62B46C82B30C243E62B0205090D0F0D58
:1033AC003954C502F954C5253930C2363910083C98
:1033BC001B6975941008380C49597E531F5F0D48D2
:1033CC006B2053220C332F100B380D21881E26C86E
:1033DC002C212592492B92212C2125300D21881E40
:1033EC00100838880F234E7167714E7188484C074E
:1033FC008A010023073FEC10062E91775F252434B9
:10340C007F10065E4F48420032011A661E8B249BC9
:10341C001A9810062E4942450C668A450C664210D5
:10342C00062E0A49960949523206200948591006B7
:10343C007268458693206560B42F10062E5D0F2FA1
:10344C00766C08490D10090062970A394F84466F53
:10345C001D052D224F483F4C6F1D052D60350A3937
:10346C004F8410062E913F270C5F578A270C24910E
:10347C008A10062ED59D460E01020B3E56790E1073
:10348C0006213C28061A069D1AC8023E2F563E55A8
:10349C00790D10062E67504E32503D660370734EF8
:1034AC001006002E0951246F02003E060D213E0924
:1034BC000A213E0C074110075E3C05211D4C5902A8
:1034CC00250F320C0C0C0C0F32250E4754CC050575
:1034DC003910068926A64CC29D10062E98242C2540
:1034EC00453E9B1A9810062E492F8B9D10062E498F
:1034FC002F8B22C825661E00321B100672246C0FFF
:10350C00276C564910065E8D286B1B1007952203FD
:10351C002D4F0B24090B022D24470C0928092C24B0
:10352C00022F5F04421008722F222C672519C82322
:10353C002C67252256492F701B10062E0A0E010AE5
:10354C008454350D2D5F05425F350D2D4C4F0E50BB
:10355C008410078985003E936B10062EE58656492C
:10356C001B10082ECD74E874C8234E032D00235570
:10357C008A4910082EAD4CAD4CAD4C4E6F010F4C22
:10358C00550E916B100727621D6B7B491E10082E80
:10359C0067718A0B5874490D74212974482F39109E
:1035AC00062E6B7B491E10062E514220013E4F49C0
:1035BC0020013E513F10092E4D9830C89B4931C80F
:1035CC009B4D9810062E347F5F0B0E023E082D3952
:1035DC001000000005210708285A427008570124E2
:1035EC0008210601100000000638050E58020832AA
:1035FC008F4C0801050C361008AC4C18376E0F8F29
:10360C0010000838931E6A2A37752B1008383701BA
:10361C00191B3343198181331E10088D9A2922C539
:10362C003560C28A22C5351981331E10068D0532CC
:10363C009E100900380551364C3D21634CA54CA514
:10364C004CA53271483746CC2B100838376E0F8F8B
:10365C00100A38350CE829841A0342F6094E6057D3
:10366C005757064C0C490C4C57575706600342F6FB
:10367C00094E303552F62984100838083342206D33
:10368C005F613F20299722083A08100838C534603A
:10369C00C634234D8023678074800074777408D4FB
:1036AC0010081A47052403460322C56160C661232E
:1036BC004D613430CC61087461080074777408D49F
:1036CC0010085EC65A0554C84A0854CC650A22C074
:1036DC000160CC650A22C84A0822C65A0510082186
:1036EC0038934C025C414C55EC4C0B0AA0011EA0CB
:1036FC001D02A0090DD410093C05261D605901219D
:10370C00650F60590B210B0EE52B5706575746CC0E
:10371C000B0E0E0B3946CC650E013930C805054130
:10372C0010083C2A8C37198C2B100838931E6A2AE7
:10373C0090931E10083C37758C8C2B10088D9A4B6F
:10374C0075264B60C243226B100838568F226C0FC3
:10375C001B276C568F1008380D3A0D709E100838C8
:10376C00090F05210C0D4C0B2D072D4C350E795FD7
:10377C00478422055C5F65085F043F100A38443AB1
:10378C00435440410D004B30A60D415440410D00B7
:10379C004B54443A40246B10083882350C4C0C0DB9
:1037AC00502C22250E5C5F073F5F250E5C240C0D10
:1037BC00502C6082350C10093C8C8C8C376B1008AB
:1037CC003C8C00714E71443A1B100A5EC68E8E8E74
:1037DC008E8E31F237100A5EA67A7A7A7A7A21C501
:1037EC00B4376B10095E07481B697594100A5EE6C6
:1037FC002B46C82B30C243E62B0205090D0F0D39A1
:10380C0054C502F954C5253930C2363910083C1B51
:10381C006975941008380C49597E531F5F0D486B1D
:10382C002053220C332F100B380D21881E26C82C48
:10383C00212592492B92212C2125300D21881E10F7
:10384C000838880F234E7167714E7188484C078A6F
:10385C00010023073FEC10062E91775F2524347F5F
:10386C0010065E4F48420032011A661E8B249B1ACA
:10387C009810062E4942450C668A450C6642100685
:10388C002E0A4996094952320620094859100672E7
:10389C0068458693206560B42F10062E5D0F2F7639
:1038AC006C08490D10090062970A394F84466F1D48
:1038BC00052D224F483F4C6F1D052D60350A394FA1
:1038CC008410062E913F270C5F578A270C24918A6F
:1038DC0010062ED59D460E01020B3E56790E100693
:1038EC00213C28061A069D1AC8023E2F563E5579D1
:1038FC000D10062E67504E32503D660370734E10FD
:10390C0006002E0951246F02003E060D213E090AC5
:10391C00213E0C074110075E3C05211D4C59022528
:10392C000F320C0C0C0C0F32250E4754CC050539FC
:10393C0010068926A64CC29D10062E98242C2545CF
:10394C003E9B1A9810062E492F8B9D10062E492F40
:10395C008B22C825661E00321B100672246C0F27A2
:10396C006C564910065E8D286B1B10079522032D93
:10397C004F0B24090B022D24470C0928092C240277
:10398C002F5F04421008722F222C672519C8232C94
:10399C0067252256492F701B10062E0A0E010A8429
:1039AC0054350D2D5F05425F350D2D4C4F0E508457
:1039BC0010078985003E936B10062EE58656491B31
:1039CC0010082ECD74E874C8234E032D0023558A9D
:1039DC004910082EAD4CAD4CAD4C4E6F010F4C55F3
:1039EC000E916B100727621D6B7B491E10082E670A
:1039FC00718A0B5874490D74212974482F3910069B
:103A0C002E6B7B491E10062E514220013E4F492041
:103A1C00013E513F10092E4D9830C89B4931C89B2F
:103A2C004D9810062E347F5F0B0E023E082D391078
:103A3C00063805F9054C185D0F2F766C08490D10EA
:103A4C000627623C8F10085E2E372D1000023806B8
:103A5C007E0A7E0D0710023C058710021C04200E06
:103A6C0010043806070904244F07405F0D085C104A
:103A7C0004383F6770060C28430810041C64065F6A
:103A8C000E005210032E484CB410061CEE101038C9
:103A9C00554021075C5452030A006F086052030A18
:103AAC00350C2255400A0E02551E641E2657050081
:103ABC00522958291A0342215229582921350C1A06
:103ACC00551E641E10050062785F5A08285A08209B
:103ADC005A081005625A08207828785F5A08100096
:103AEC000D380B08260B00641ED442CC5829D43454
:103AFC0007E8582900CC3406F6641E21C8344A6005
:103B0C00C65D6791C5C5341000066251030B60B4E5
:103B1C001D100000110980030F800F80410180C52A
:103B2C0080CEC60F800E020980090BC2CE040F0D89
:103B3C00C1CC058009800580CEC20180C34001CE76
:103B4C00C706800380060A8083C880C1CDCEC58598
:103B5C00210180844011801F2180CDC2800B80CA3E
:103B6C00CDC4028080C9CDC5C5CD0B800305C280F4
:103B7C008182C480C3CD0A8002CEC301CAC1CBCE20
:103B8C0081CCC1C3CE07C6CEC7CEC680CAC380CE39
:103B9C00C7801080C4C8CE200C08CA8031C2CDC4E6
:103BAC00CDC1CE0B828001242C39334322C54B224C
:103BBC002C2125192A0F1F2C282920290C191B33DD
:103BCC0005321B030F213226232E5649293D60CC8A
:103BDC00503919192A244E00574CC2014C0F082198
:103BEC0007420E094154A6481E22C82922C829247E
:103BFC0022521A1D1F270D4CB40D280720483E2FAA
:103C0C00213E08330942262919092D005A08633D23
:103C1C000D011A26A6453E2C3E2C003E26320120D4
:103C2C000D050E492E310F0B22C8254CA62A2A5EF3
:103C3C00C231C6330C46232C2125220B48002BC83D
:103C4C00CC2B5549265360C2362E0B0B21470552FF
:103C5C0028025C4C2035560F2F280749072836229E
:103C6C00C52C256029224E1A453E311F1B1B4C5674
:103C7C0001281A23000006000C000C000C000D009B
:103C8C0016001B000C00210030003B000C000C0047
:103C9C000C0044000C000C000C004A000C000C0042
:103CAC000C000C000C000C000C000C000C004E0066
:103CBC000C000C000C000C000C000C000C000C0098
:103CCC0085009300000003000C0017002A0043003D
:103CDC00710093009800A300AF00BB00C200C800A5
:103CEC00CE00D100E800000106011C012E014701A5
:103CFC0056016B0182019A01AD01B301B901C701F3
:103D0C00CF01DB01E8010D021702290236023E0247
:103D1C0045024A025B026402690274029102980233
:103D2C00C202D802E202EF020203120325032D03A2
:103D3C00350359039303B203BC03D303DD03F2032E
:103D4C00FC030D0412041B04250431043B0447043A
:103D5C0052045E046A0472047904850464029904B2
:103D6C00AC04B304BF04CD04D604E204F104FC0497
:103D7C00030516053C0554056E0580058D05940557
:103D8C00A405000000000300090009000900090057
:103D9C000A0016000900320009004200090009005F
:103DAC004F0009005F006A0075007C008400090068
:103DBC00090089008C009C005F00C400D200DF0069
:103DCC00EB0002010F011901270139013F015701D5
:103DDC005E0186019801AE01CE01EB0104022E02B8
:103DEC00370241024902560263026B028902A502A4
:103DFC00C402CC02D702E302F102FA021A03210335
:103E0C0034034D0364036E037F038C039B03A703EE
:103E1C00B203CF03DE03EC03FF030D0423043E04C3
:103E2C004604520459046704710478049204A604ED
:103E3C00BE04C604CE04DF04F104FA040C05130519
:103E4C002205300500000000000000000000090001
:103E5C00090009000900090009000900090009000E
:103E6C00090009000900090009000A0014002200D9
:103E7C0034003A005200590081009300A900C90097
:103E8C00E600FF00290132013C01440151015E01B1
:103E9C0066018401A001BF01C701D201DE01EC0162
:103EAC00F50115021C022F0248025F0269027A0218
:103EBC0087029602A202AD02CA02D902E702FA02F6
:103ECC0008031E03390341034D03540362036C03BF
:103EDC0073038D03A103B903C103C903DA03EC0314
:103EEC00F50307040E041D042B040900380400001C
:103EFC00000000009C40000800002800280028005A
:103F0C002800280028002800280028002800280065
:103F1C002900000004020408080003070808080828
:103F2C00080808080B0F000020005F00D03C0008B8
:103F3C00EC2A0008A0006000903D0008A0300008AA
:103F4C00C6020100503E0008E0350008DC0201000A
:103F5C00543E0008F435000801045100583E000896
:103F6C000436000813202800803C00084C3A000856
:103F7C0016210D00043F0008EC3A00080000010077
:103F8C000300040008000B000D000F0011001200CC
:103F9C00130014001600170019001A001B001C0057
:103FAC001E0022002400270029002B002D002E00CB
:103FBC00320034003500370039003B003C003D0036
:103FCC003F0040004400460048004A004C004E00B0
:103FDC00500052005400560059005A005C005D001D
:103FEC005E006000620063006500670069006B00A2
:103FFC006D006F00710072007400760078007A001A
:10400C007C007E007F008100830084008500860098
:10401C00880089008B008D008F0091009300960022
:10402C009B00A100A300A500A800AF00B100B30045
:10403C00B500B800BD00BF00C100C900CC00CE0067
:10404C00D000D300DC00DF00E700E900F000F20054
:10405C00F500F800FC00FF00040108010D0110013F
:10406C001201140119011B011D011F01210127015E
:10407C0029012E01300135013B014001420145016E
:10408C004A014D015001540157015B015E01600171
:10409C00D4290008CC400008100C021001090C00B7
:1040AC003F000000C10F000871040008040000006C
:1040BC00203B0008883F000850890700343F000867
:0C40CC00706870367953435759000000AB
:04000005080001618D
:00000001FF
